{
  "contractName": "DiceGame",
  "abi": [
    {
      "inputs": [],
      "payable": false,
      "stateMutability": "nonpayable",
      "type": "constructor"
    },
    {
      "payable": true,
      "stateMutability": "payable",
      "type": "fallback"
    },
    {
      "anonymous": false,
      "inputs": [
        {
          "indexed": false,
          "name": "bidder",
          "type": "address"
        },
        {
          "indexed": false,
          "name": "currentBet",
          "type": "uint8"
        }
      ],
      "name": "NewBetIsSet",
      "type": "event"
    },
    {
      "anonymous": false,
      "inputs": [
        {
          "indexed": false,
          "name": "bidder",
          "type": "address"
        },
        {
          "indexed": false,
          "name": "currentBet",
          "type": "uint8"
        },
        {
          "indexed": false,
          "name": "destiny",
          "type": "uint8"
        }
      ],
      "name": "GameResult",
      "type": "event"
    },
    {
      "constant": false,
      "inputs": [],
      "name": "getNewBet",
      "outputs": [
        {
          "name": "",
          "type": "uint8"
        }
      ],
      "payable": false,
      "stateMutability": "nonpayable",
      "type": "function"
    },
    {
      "constant": false,
      "inputs": [],
      "name": "roll",
      "outputs": [
        {
          "name": "",
          "type": "address"
        },
        {
          "name": "",
          "type": "uint8"
        },
        {
          "name": "",
          "type": "uint8"
        }
      ],
      "payable": true,
      "stateMutability": "payable",
      "type": "function"
    },
    {
      "constant": true,
      "inputs": [],
      "name": "isBetSet",
      "outputs": [
        {
          "name": "",
          "type": "bool"
        }
      ],
      "payable": false,
      "stateMutability": "view",
      "type": "function"
    },
    {
      "constant": true,
      "inputs": [],
      "name": "getBet",
      "outputs": [
        {
          "name": "",
          "type": "uint8"
        }
      ],
      "payable": false,
      "stateMutability": "view",
      "type": "function"
    }
  ],
  "bytecode": "0x608060405234801561001057600080fd5b50600a600160006101000a81548160ff021916908360ff160217905550610a8d8061003c6000396000f3fe60806040526004361061003f5760003560e01c80631ae651c81461004157806320835e8c146100705780639b552fff146100a1578063cd5e3c5d146100d2575b005b34801561004d57600080fd5b50610056610136565b604051808215151515815260200191505060405180910390f35b34801561007c57600080fd5b5061008561018c565b604051808260ff1660ff16815260200191505060405180910390f35b3480156100ad57600080fd5b506100b66102aa565b604051808260ff1660ff16815260200191505060405180910390f35b6100da6105bc565b604051808473ffffffffffffffffffffffffffffffffffffffff1673ffffffffffffffffffffffffffffffffffffffff1681526020018360ff1660ff1681526020018260ff1660ff168152602001935050505060405180910390f35b60008060003373ffffffffffffffffffffffffffffffffffffffff1673ffffffffffffffffffffffffffffffffffffffff16815260200190815260200160002060000160019054906101000a900460ff16905090565b6000600115156000803373ffffffffffffffffffffffffffffffffffffffff1673ffffffffffffffffffffffffffffffffffffffff16815260200190815260200160002060000160019054906101000a900460ff16151514610256576040517f08c379a00000000000000000000000000000000000000000000000000000000081526004018080602001828103825260148152602001807f42657420686173206e6f74206265656e2073657400000000000000000000000081525060200191505060405180910390fd5b6000803373ffffffffffffffffffffffffffffffffffffffff1673ffffffffffffffffffffffffffffffffffffffff16815260200190815260200160002060000160009054906101000a900460ff16905090565b60008015156000803373ffffffffffffffffffffffffffffffffffffffff1673ffffffffffffffffffffffffffffffffffffffff16815260200190815260200160002060000160019054906101000a900460ff16151514610373576040517f08c379a00000000000000000000000000000000000000000000000000000000081526004018080602001828103825260108152602001807f42657420686173206265656e207365740000000000000000000000000000000081525060200191505060405180910390fd5b60016000803373ffffffffffffffffffffffffffffffffffffffff1673ffffffffffffffffffffffffffffffffffffffff16815260200190815260200160002060000160016101000a81548160ff0219169083151502179055506103d5610a27565b6000803373ffffffffffffffffffffffffffffffffffffffff1673ffffffffffffffffffffffffffffffffffffffff16815260200190815260200160002060000160006101000a81548160ff021916908360ff1602179055506000803373ffffffffffffffffffffffffffffffffffffffff1673ffffffffffffffffffffffffffffffffffffffff16815260200190815260200160002060000160009054906101000a900460ff16600160008282829054906101000a900460ff160192506101000a81548160ff021916908360ff1602179055507f1a6d1c7cdda3e4348ddfb32842a3b51955212e84b454ebc11b068be843ee3b12336000803373ffffffffffffffffffffffffffffffffffffffff1673ffffffffffffffffffffffffffffffffffffffff16815260200190815260200160002060000160009054906101000a900460ff16604051808373ffffffffffffffffffffffffffffffffffffffff1673ffffffffffffffffffffffffffffffffffffffff1681526020018260ff1660ff1681526020019250505060405180910390a16000803373ffffffffffffffffffffffffffffffffffffffff1673ffffffffffffffffffffffffffffffffffffffff16815260200190815260200160002060000160009054906101000a900460ff16905090565b6000806000600115156000803373ffffffffffffffffffffffffffffffffffffffff1673ffffffffffffffffffffffffffffffffffffffff16815260200190815260200160002060000160019054906101000a900460ff16151514610689576040517f08c379a00000000000000000000000000000000000000000000000000000000081526004018080602001828103825260148152602001807f42657420686173206e6f74206265656e2073657400000000000000000000000081525060200191505060405180910390fd5b610691610a27565b6000803373ffffffffffffffffffffffffffffffffffffffff1673ffffffffffffffffffffffffffffffffffffffff16815260200190815260200160002060000160026101000a81548160ff021916908360ff1602179055506000803373ffffffffffffffffffffffffffffffffffffffff1673ffffffffffffffffffffffffffffffffffffffff16815260200190815260200160002060000160029054906101000a900460ff16600160008282829054906101000a900460ff160192506101000a81548160ff021916908360ff16021790555060008060003373ffffffffffffffffffffffffffffffffffffffff1673ffffffffffffffffffffffffffffffffffffffff16815260200190815260200160002060000160016101000a81548160ff0219169083151502179055506000803373ffffffffffffffffffffffffffffffffffffffff1673ffffffffffffffffffffffffffffffffffffffff16815260200190815260200160002060000160009054906101000a900460ff1660ff166000803373ffffffffffffffffffffffffffffffffffffffff1673ffffffffffffffffffffffffffffffffffffffff16815260200190815260200160002060000160029054906101000a905050507ff2c19256ceef03eec7a00ba5e27726b55e9224b711266400dfe19267ac36f44d336000803373ffffffffffffffffffffffffffffffffffffffff1673ffffffffffffffffffffffffffffffffffffffff16815260200190815260200160002060000160009054906101000a900460ff166000803373ffffffffffffffffffffffffffffffffffffffff1673ffffffffffffffffffffffffffffffffffffffff16815260200190815260200160002060000160029054906101000a900460ff16604051808473ffffffffffffffffffffffffffffffffffffffff1673ffffffffffffffffffffffffffffffffffffffff1681526020018360ff1660ff1681526020018260ff1660ff168152602001935050505060405180910390a1336000803373ffffffffffffffffffffffffffffffffffffffff1673ffffffffffffffffffffffffffffffffffffffff16815260200190815260200160002060000160009054906101000a900460ff166000803373ffffffffffffffffffffffffffffffffffffffff1673ffffffffffffffffffffffffffffffffffffffff16815260200190815260200160002060000160029054906101000a900460ff16829250925092509250909192565b6000804260014303014060001c9050600160009054906101000a900460ff1660ff1681019050600160058281610a5957fe5b06019150509056fea165627a7a72305820d3e36d2e2300c52feed2c530e0957b517f77089f5574219f5dd02f42d9bd19640029",
  "source": "pragma solidity >=0.4.22 <0.6.0;\n\ncontract DiceGame{\n\n    struct Bet{\n      uint8  currentBet; // this is target, used to set a new bet\n      bool  isBetSet; // default value is false\n      uint8  destiny; // contains the number when you roll the dice\n     }\n\n    mapping (address => Bet) private bets;\n\n    uint8 private randomFactor; // used to randomize results\n\n    event NewBetIsSet(address bidder, uint8 currentBet);\n    event GameResult(address bidder, uint8 currentBet, uint8 destiny);\n\n    constructor () public {\n        randomFactor = 10;\n    }\n\n    function getNewBet () public returns(uint8) {\n        // check if a bet is already set for the player\n        require(bets[msg.sender].isBetSet == false, \"Bet has been set\");\n        // set the bet\n        bets[msg.sender].isBetSet = true;\n        // get random number and set the current bet\n        bets[msg.sender].currentBet = random();\n        randomFactor += bets[msg.sender].currentBet;\n        emit NewBetIsSet(msg.sender, bets[msg.sender].currentBet);\n        return bets[msg.sender].currentBet;\n    }\n\n    function roll() public payable returns(address, uint8, uint8) {\n        // check if the bet is set  for the player\n        require(bets[msg.sender].isBetSet == true, \"Bet has not been set\");\n        // set destiny (roll the dice)\n        bets[msg.sender].destiny = random();\n        randomFactor += bets[msg.sender].destiny;\n        bets[msg.sender].isBetSet = false;\n        // check result\n        if(bets[msg.sender].destiny == bets[msg.sender].currentBet){\n            //msg.sender.transfer(100000000000000); // 0.00001 ether\n        }\n        emit GameResult(msg.sender, bets[msg.sender].currentBet, bets[msg.sender].destiny);\n        return (msg.sender, bets[msg.sender].currentBet, bets[msg.sender].destiny);\n    }\n\n    function random() private view returns (uint8) {\n        uint256 blockValue = uint256(blockhash(block.number-1 + block.timestamp));\n        blockValue = blockValue + uint256(randomFactor);\n        return uint8(blockValue%5) + 1;\n    }\n\n    function isBetSet () public view returns (bool) {\n        return bets[msg.sender].isBetSet;\n    }\n\n    function getBet () public view returns (uint8) {\n        require(bets[msg.sender].isBetSet == true, \"Bet has not been set\");\n        return bets[msg.sender].currentBet;\n    }\n\n    function () external payable{}\n}",
  "sourcePath": "D:/BlockChain/DAPP/dice_game_v3/simpletx/contracts/DiceGame.sol",
  "compiler": {
    "name": "solc",
    "version": "0.5.8+commit.23d335f2.Emscripten.clang"
  },
  "schemaVersion": "3.0.15",
  "updatedAt": "2019-10-01T06:38:35.757Z",
  "devdoc": {
    "methods": {}
  },
  "userdoc": {
    "methods": {}
  }
}